{
  "contractName": "Voting",
  "abi": [
    {
      "inputs": [
        {
          "internalType": "contract ZKProofVerifier",
          "name": "_proofVerifier",
          "type": "address"
        }
      ],
      "stateMutability": "nonpayable",
      "type": "constructor"
    },
    {
      "anonymous": false,
      "inputs": [
        {
          "indexed": true,
          "internalType": "uint256",
          "name": "voteId",
          "type": "uint256"
        }
      ],
      "name": "VoteCast",
      "type": "event"
    },
    {
      "anonymous": false,
      "inputs": [
        {
          "indexed": true,
          "internalType": "uint256",
          "name": "voteId",
          "type": "uint256"
        },
        {
          "indexed": false,
          "internalType": "string",
          "name": "title",
          "type": "string"
        }
      ],
      "name": "VoteCreated",
      "type": "event"
    },
    {
      "anonymous": false,
      "inputs": [
        {
          "indexed": false,
          "internalType": "string",
          "name": "message",
          "type": "string"
        },
        {
          "indexed": false,
          "internalType": "string",
          "name": "result",
          "type": "string"
        }
      ],
      "name": "VoteFeedback",
      "type": "event"
    },
    {
      "anonymous": false,
      "inputs": [
        {
          "indexed": true,
          "internalType": "uint256",
          "name": "voteId",
          "type": "uint256"
        },
        {
          "indexed": true,
          "internalType": "address",
          "name": "voter",
          "type": "address"
        }
      ],
      "name": "VoterSignedUp",
      "type": "event"
    },
    {
      "inputs": [],
      "name": "proofVerifier",
      "outputs": [
        {
          "internalType": "contract ZKProofVerifier",
          "name": "",
          "type": "address"
        }
      ],
      "stateMutability": "view",
      "type": "function",
      "constant": true
    },
    {
      "inputs": [
        {
          "internalType": "uint256",
          "name": "",
          "type": "uint256"
        },
        {
          "internalType": "address",
          "name": "",
          "type": "address"
        }
      ],
      "name": "signedUpVoters",
      "outputs": [
        {
          "internalType": "bool",
          "name": "",
          "type": "bool"
        }
      ],
      "stateMutability": "view",
      "type": "function",
      "constant": true
    },
    {
      "inputs": [],
      "name": "totalVoteProjects",
      "outputs": [
        {
          "internalType": "uint256",
          "name": "",
          "type": "uint256"
        }
      ],
      "stateMutability": "view",
      "type": "function",
      "constant": true
    },
    {
      "inputs": [
        {
          "internalType": "uint256",
          "name": "",
          "type": "uint256"
        }
      ],
      "name": "votes",
      "outputs": [
        {
          "internalType": "uint256",
          "name": "id",
          "type": "uint256"
        },
        {
          "internalType": "string",
          "name": "title",
          "type": "string"
        },
        {
          "internalType": "string",
          "name": "description",
          "type": "string"
        },
        {
          "internalType": "uint256",
          "name": "startTime",
          "type": "uint256"
        },
        {
          "internalType": "uint256",
          "name": "endTime",
          "type": "uint256"
        },
        {
          "internalType": "uint256",
          "name": "voterCount",
          "type": "uint256"
        },
        {
          "internalType": "uint256",
          "name": "totalVotes",
          "type": "uint256"
        },
        {
          "internalType": "uint256",
          "name": "optionCount",
          "type": "uint256"
        }
      ],
      "stateMutability": "view",
      "type": "function",
      "constant": true
    },
    {
      "inputs": [
        {
          "internalType": "string",
          "name": "_title",
          "type": "string"
        },
        {
          "internalType": "string",
          "name": "_description",
          "type": "string"
        },
        {
          "internalType": "uint256",
          "name": "_startTime",
          "type": "uint256"
        },
        {
          "internalType": "uint256",
          "name": "_endTime",
          "type": "uint256"
        },
        {
          "internalType": "string[]",
          "name": "_options",
          "type": "string[]"
        }
      ],
      "name": "createVote",
      "outputs": [],
      "stateMutability": "nonpayable",
      "type": "function"
    },
    {
      "inputs": [
        {
          "internalType": "uint256",
          "name": "_voteId",
          "type": "uint256"
        }
      ],
      "name": "signUpForVote",
      "outputs": [],
      "stateMutability": "nonpayable",
      "type": "function"
    },
    {
      "inputs": [
        {
          "internalType": "uint256",
          "name": "_voteId",
          "type": "uint256"
        },
        {
          "internalType": "uint256",
          "name": "_optionId",
          "type": "uint256"
        },
        {
          "internalType": "bytes",
          "name": "_proof",
          "type": "bytes"
        }
      ],
      "name": "submitVote",
      "outputs": [],
      "stateMutability": "nonpayable",
      "type": "function"
    },
    {
      "inputs": [
        {
          "internalType": "uint256",
          "name": "_voteId",
          "type": "uint256"
        }
      ],
      "name": "getCurrentPhase",
      "outputs": [
        {
          "internalType": "enum Voting.VotePhase",
          "name": "",
          "type": "uint8"
        }
      ],
      "stateMutability": "view",
      "type": "function",
      "constant": true
    },
    {
      "inputs": [
        {
          "internalType": "uint256",
          "name": "_voteId",
          "type": "uint256"
        }
      ],
      "name": "getVote",
      "outputs": [
        {
          "internalType": "uint256",
          "name": "id",
          "type": "uint256"
        },
        {
          "internalType": "string",
          "name": "title",
          "type": "string"
        },
        {
          "internalType": "string",
          "name": "description",
          "type": "string"
        },
        {
          "internalType": "uint256",
          "name": "startTime",
          "type": "uint256"
        },
        {
          "internalType": "uint256",
          "name": "endTime",
          "type": "uint256"
        },
        {
          "internalType": "uint256",
          "name": "voterCount",
          "type": "uint256"
        },
        {
          "internalType": "uint256",
          "name": "numVotes",
          "type": "uint256"
        }
      ],
      "stateMutability": "view",
      "type": "function",
      "constant": true
    },
    {
      "inputs": [
        {
          "internalType": "uint256",
          "name": "_voteId",
          "type": "uint256"
        },
        {
          "internalType": "uint256",
          "name": "_optionId",
          "type": "uint256"
        }
      ],
      "name": "getOption",
      "outputs": [
        {
          "internalType": "string",
          "name": "optionText",
          "type": "string"
        },
        {
          "internalType": "uint256",
          "name": "voteCount",
          "type": "uint256"
        }
      ],
      "stateMutability": "view",
      "type": "function",
      "constant": true
    },
    {
      "inputs": [
        {
          "internalType": "uint256",
          "name": "_voteId",
          "type": "uint256"
        }
      ],
      "name": "getOptionCount",
      "outputs": [
        {
          "internalType": "uint256",
          "name": "",
          "type": "uint256"
        }
      ],
      "stateMutability": "view",
      "type": "function",
      "constant": true
    },
    {
      "inputs": [
        {
          "internalType": "uint256",
          "name": "_voteId",
          "type": "uint256"
        },
        {
          "internalType": "address",
          "name": "_voter",
          "type": "address"
        }
      ],
      "name": "hasVoted",
      "outputs": [
        {
          "internalType": "bool",
          "name": "",
          "type": "bool"
        }
      ],
      "stateMutability": "view",
      "type": "function",
      "constant": true
    },
    {
      "inputs": [
        {
          "internalType": "uint256",
          "name": "_voteId",
          "type": "uint256"
        },
        {
          "internalType": "address",
          "name": "_voter",
          "type": "address"
        }
      ],
      "name": "isSignedUp",
      "outputs": [
        {
          "internalType": "bool",
          "name": "",
          "type": "bool"
        }
      ],
      "stateMutability": "view",
      "type": "function",
      "constant": true
    }
  ],
  "bytecode": "0x60a0346100bc57601f6113e038819003918201601f19168301916001600160401b038311848410176100c1578084926020946040528339810103126100bc57516001600160a01b0381168082036100bc57156100775760805260405161130890816100d882396080518181816108f40152610bbe0152f35b60405162461bcd60e51b815260206004820152601e60248201527fe697a0e69588e79a84e8af81e6988ee9aa8ce8af81e599a8e59cb0e59d8000006044820152606490fd5b600080fd5b634e487b7160e01b600052604160045260246000fdfe6080604052600436101561001257600080fd5b60003560e01c80631ce3092714610ef857806333b1a9a614610eda5780634385963214610e965780634aa9c2a214610ab4578063572e85ec14610a6f5780635a55c1f0146109bb5780635df81330146109185780637ba7cae3146100ab5780637fa417b3146108d457806390a520a8146102d1578063bf04579214610120578063e1adaf58146100f15763eef7180d146100ab57600080fd5b346100ec576100b936610f78565b9060005260026020526001600160a01b0360406000209116600052602052602060ff604060002054166040519015158152f35b600080fd5b346100ec5760203660031901126100ec5760043560005260006020526020600760406000200154604051908152f35b346100ec576020806003193601126100ec576004358060005260008252604060002061014e81541515611122565b60038101546202a2ff1981019081116102bb5742106102775760048101544211610233578160005260028352604060002033600052835260ff604060002054166101ef5781926005926000526002815260406000209033600052526040600020600160ff19825416179055016101c48154611113565b905533907f2ed654e8c5d1f0c45959fef0fb39d6cf78537fedc5c37a6852eadf475c5d91cf600080a3005b6064836040519062461bcd60e51b82526004820152600960248201527fe5b7b2e68aa5e5908d00000000000000000000000000000000000000000000006044820152fd5b6064836040519062461bcd60e51b82526004820152600f60248201527fe68aa5e5908de5b7b2e7bb93e69d9f00000000000000000000000000000000006044820152fd5b6064836040519062461bcd60e51b82526004820152600f60248201527fe68aa5e5908de69caae5bc80e5a78b00000000000000000000000000000000006044820152fd5b634e487b7160e01b600052601160045260246000fd5b346100ec5760a03660031901126100ec5760043567ffffffffffffffff81116100ec576103029036906004016110bc565b60243567ffffffffffffffff81116100ec576103229036906004016110bc565b906084359067ffffffffffffffff82116100ec57366023830112156100ec5781600401359167ffffffffffffffff831161061e578260051b906040519361036c6020840186610ff4565b845260246020850192820101903682116100ec5760248101925b8284106108a45750505050604435606435111561083a578151156107f6576103af600154611113565b91826001558260005260006020526040600020928355815167ffffffffffffffff811161061e576103e36001850154610f9e565b601f81116107af575b50806020601f821160011461074257600091610737575b508160011b916000199060031b1c19161760018401555b835167ffffffffffffffff811161061e576104386002850154610f9e565b601f81116106f0575b506020601f8211600114610681578192939495600092610676575b50508160011b916000199060031b1c19161760028401555b604435600384015560643560048401558051600784015560005b81518110156106345760208160051b830101516040519081604081011067ffffffffffffffff60408401111761061e57604082016040528152600060208201526001820182116102bb576001820160005260088501602052604060002090805180519067ffffffffffffffff821161061e5761050a8454610f9e565b601f81116105da575b50602090601f831160011461056657928260019360209361055698979660009261055b575b5050600019600383901b1c191690841b1784555b0151910155611113565b61048e565b015190508b80610538565b908460005260206000209160005b601f19851681106105c257508360209361055698979693600196938794601f198116106105a9575b505050811b01845561054c565b015160001960f88460031b161c191690558b808061059c565b91926020600181928685015181550194019201610574565b846000526020600020601f840160051c810160208510610617575b601f830160051c8201811061060b575050610513565b600081556001016105f5565b50806105f5565b634e487b7160e01b600052604160045260246000fd5b827f8225b3ad6e66d4c2342e977fbab464beaf3ae9d33b222938cff268dfd7b55b8361067160015492604051918291602083526020830190610f38565b0390a2005b01519050858061045c565b6002850160005260206000209060005b601f19841681106106d8575060019394959683601f198116106106bf575b505050811b016002840155610474565b015160001960f88460031b161c191690558580806106af565b9091602060018192858b015181550193019101610691565b600285016000526020600020601f830160051c810160208410610730575b601f830160051c82018110610724575050610441565b6000815560010161070e565b508061070e565b905083015186610403565b91506001850160005260206000206000925b601f1983168410610797576001935082601f1981161061077e575b5050811b01600184015561041a565b85015160001960f88460031b161c19169055868061076f565b85810151825560209384019360019092019101610754565b600185016000526020600020601f830160051c8101602084106107ef575b601f830160051c820181106107e35750506103ec565b600081556001016107cd565b50806107cd565b606460405162461bcd60e51b815260206004820152601860248201527fe887b3e5b091e99c80e8a681e4b880e4b8aae98089e9a1b900000000000000006044820152fd5b608460405162461bcd60e51b815260206004820152602760248201527fe7bb93e69d9fe697b6e997b4e5bf85e9a1bbe59ca8e5bc80e5a78be697b6e99760448201527fb4e4b98be5908e000000000000000000000000000000000000000000000000006064820152fd5b833567ffffffffffffffff81116100ec576020916108c98392602436918701016110bc565b815201930192610386565b346100ec5760003660031901126100ec5760206040516001600160a01b037f0000000000000000000000000000000000000000000000000000000000000000168152f35b346100ec5760203660031901126100ec5760043560005260006020526040600020805461094760018301611016565b9161095460028201611016565b600382015491600481015460058201549061099d600760068501549401549461098f604051998a998a526101008060208c01528a0190610f38565b9088820360408a0152610f38565b946060870152608086015260a085015260c084015260e08301520390f35b346100ec5760203660031901126100ec5760043580151580610a63575b6109e190611122565b600052600060205260406000208054600382015460048301546005840154600685015491610a4a610a206002610a1960018a01611016565b9801611016565b610a3c604051988998895260e060208a015260e0890190610f38565b908782036040890152610f38565b936060860152608085015260a084015260c08301520390f35b506001548111156109d8565b346100ec5760203660031901126100ec57610a8b6004356111b8565b6040516003821015610a9e576020918152f35b634e487b7160e01b600052602160045260246000fd5b346100ec5760603660031901126100ec57600435604435602467ffffffffffffffff81358184116100ec57366023850112156100ec5783600401359182116100ec57368383860101116100ec578460005260209260008452604060002092610b1b876111b8565b6003811015610e8157600103610e3e5782151580610e30575b610b3d9061116d565b60098401953360005286865260ff60406000205416610ded5782606487928460405195869485937fb124b67b00000000000000000000000000000000000000000000000000000000855260406004860152826044860152018484013760008382840101528b87830152601f8019910116810103018160006001600160a01b037f0000000000000000000000000000000000000000000000000000000000000000165af1908115610de157600091610dab575b508015610d4d577f6ba527bbc8c1bf470a226780985c0288fb6369c537965ac398732c179bcc79c5610c97604051610c2681610fd8565b600681527fe68890e58a9f0000000000000000000000000000000000000000000000000000888201525b60405191829160408352601260408401527fe68a95e7a5a8e8af81e6988ee9aa8ce8af810000000000000000000000000000606084015260808a8401526080830190610f38565b0390a115610d0a5750906006916000526008810183526001604060002001610cbf8154611113565b905501610ccc8154611113565b905533600052526040600020600160ff198254161790557f9593d9bd30eff4872ec3bab10360ad82eaac80651801e68f47f0674c38415c3d600080a2005b8360126064926040519262461bcd60e51b845260048401528201527fe68a95e7a5a8e8af81e6988ee697a0e6958800000000000000000000000000006044820152fd5b7f6ba527bbc8c1bf470a226780985c0288fb6369c537965ac398732c179bcc79c5610c97604051610d7d81610fd8565b600681527fe5a4b1e8b4a5000000000000000000000000000000000000000000000000000088820152610c50565b90508481813d8311610dda575b610dc28183610ff4565b810103126100ec575180151581036100ec5787610bef565b503d610db8565b6040513d6000823e3d90fd5b606486600c856040519262461bcd60e51b845260048401528201527fe5b7b2e7bb8fe68a95e7a5a800000000000000000000000000000000000000006044820152fd5b506007840154831115610b34565b6064856012846040519262461bcd60e51b845260048401528201527fe4b88de59ca8e68a95e7a5a8e998b6e6aeb500000000000000000000000000006044820152fd5b82634e487b7160e01b60005260216004526000fd5b346100ec57610ea436610f78565b9060005260006020526001600160a01b0360096040600020019116600052602052602060ff604060002054166040519015158152f35b346100ec5760003660031901126100ec576020600154604051908152f35b346100ec5760403660031901126100ec57610f2e610f1a602435600435611228565b604051928392604084526040840190610f38565b9060208301520390f35b919082519283825260005b848110610f64575050826000602080949584010152601f8019910116010190565b602081830181015184830182015201610f43565b60409060031901126100ec57600435906024356001600160a01b03811681036100ec5790565b90600182811c92168015610fce575b6020831014610fb857565b634e487b7160e01b600052602260045260246000fd5b91607f1691610fad565b6040810190811067ffffffffffffffff82111761061e57604052565b90601f8019910116810190811067ffffffffffffffff82111761061e57604052565b906040519182600082549261102a84610f9e565b9081845260019485811690816000146110995750600114611056575b505061105492500383610ff4565b565b9093915060005260209081600020936000915b81831061108157505061105493508201013880611046565b85548884018501529485019487945091830191611069565b91505061105494506020925060ff191682840152151560051b8201013880611046565b81601f820112156100ec5780359067ffffffffffffffff821161061e57604051926110f1601f8401601f191660200185610ff4565b828452602083830101116100ec57816000926020809301838601378301015290565b60001981146102bb5760010190565b1561112957565b606460405162461bcd60e51b815260206004820152600e60248201527fe68a95e7a5a84944e697a0e695880000000000000000000000000000000000006044820152fd5b1561117457565b606460405162461bcd60e51b815260206004820152600e60248201527fe98089e9a1b94944e697a0e695880000000000000000000000000000000000006044820152fd5b600090815280602052604081206111d181541515611122565b60038101546202a2ff1981019181831161121457600401544211156111f857505050600290565b4210611205575050600190565b421061120e5790565b50600290565b602484634e487b7160e01b81526011600452fd5b9190600090838252816020526040822090801515806112c4575b61124b9061116d565b82526008810160205261126160408320946111b8565b60038110156112b057600214159081611297575b5061128d5750611289600183015492611016565b9190565b9161128990611016565b33835260090160205250604081205460ff161538611275565b602483634e487b7160e01b81526021600452fd5b50600782015481111561124256fea2646970667358221220ccd6874d08138d42dd03339b2010fc5d470483c10492a65ce9c818b0bd4da4a464736f6c63430008130033",
  "immutableReferences": {
    "86": [
      {
        "length": 32,
        "start": 2292
      },
      {
        "length": 32,
        "start": 3006
      }
    ]
  },
  "source": "// SPDX-License-Identifier: MIT\npragma solidity ^0.8.0;\n\nimport \"./ZKProofVerifier.sol\";\n\ncontract Voting {\n    struct Option {\n        string text;\n        uint votesReceived;\n    }\n\n    enum VotePhase { Registration, Voting, Ended }\n    \n    struct VoteData {\n        uint id;\n        string title;\n        string description;\n        uint startTime;\n        uint endTime;\n        uint voterCount;\n        uint totalVotes;\n        uint optionCount;\n        mapping(uint => Option) options;\n        mapping(address => bool) hasVoted;\n    }\n\n    mapping(uint => VoteData) public votes;\n    uint public totalVoteProjects;\n    mapping(uint => mapping(address => bool)) public signedUpVoters;\n    \n    ZKProofVerifier public immutable proofVerifier;\n\n    event VoteCreated(uint indexed voteId, string title);\n    event VoterSignedUp(uint indexed voteId, address indexed voter);\n    event VoteCast(uint indexed voteId);\n    event VoteFeedback(string message, string result);\n    \n    constructor(ZKProofVerifier _proofVerifier) {\n        require(address(_proofVerifier) != address(0), unicode\"\");\n        proofVerifier = _proofVerifier;\n    }\n\n    function createVote(\n        string memory _title,\n        string memory _description,\n        uint _startTime,\n        uint _endTime,\n        string[] memory _options\n    ) public {\n        require(_endTime > _startTime, unicode\"\");\n        require(_options.length > 0, unicode\"\");\n        \n        totalVoteProjects++;\n        VoteData storage voteData = votes[totalVoteProjects];\n        voteData.id = totalVoteProjects;\n        voteData.title = _title;\n        voteData.description = _description;\n        voteData.startTime = _startTime;\n        voteData.endTime = _endTime;\n        voteData.optionCount = _options.length;\n        \n        for (uint i = 0; i < _options.length; i++) {\n            voteData.options[i+1] = Option(_options[i], 0);\n        }\n        \n        emit VoteCreated(totalVoteProjects, _title);\n    }\n\n    function signUpForVote(uint _voteId) public {\n        VoteData storage voteData = votes[_voteId];\n        require(voteData.id > 0, unicode\"ID\");\n        \n        uint registrationStartTime = voteData.startTime - 2 days;\n        require(block.timestamp >= registrationStartTime, unicode\"\");\n        require(block.timestamp <= voteData.endTime, unicode\"\"); // \n        require(!signedUpVoters[_voteId][msg.sender], unicode\"\");\n        \n        signedUpVoters[_voteId][msg.sender] = true;\n        voteData.voterCount++;\n        \n        emit VoterSignedUp(_voteId, msg.sender);\n    }\n\n    function submitVote(\n        uint _voteId,\n        uint _optionId,\n        bytes calldata _proof\n    ) public {\n        VoteData storage voteData = votes[_voteId];\n        \n        // \n        VotePhase phase = getCurrentPhase(_voteId);\n        require(phase == VotePhase.Voting, unicode\"\");\n        \n        // ID\n        require(_optionId > 0 && _optionId <= voteData.optionCount, unicode\"ID\");\n        \n        // \n        bool hasAlreadyVoted = voteData.hasVoted[msg.sender];\n        require(!hasAlreadyVoted, unicode\"\");\n\n        // voteId\n        bool isProofValid = verifyProofUsingPrecompiles(_proof, _voteId);\n        require(isProofValid, unicode\"\");\n        \n        // \n        voteData.options[_optionId].votesReceived++;\n        voteData.totalVotes++;\n        voteData.hasVoted[msg.sender] = true;\n        \n        emit VoteCast(_voteId);\n    }\n    \n    function verifyProofUsingPrecompiles(\n        bytes calldata _proof,\n        uint _voteId\n    ) internal returns (bool) {\n        // ZKProofVerifier\n        bool isValid = proofVerifier.verifyVoteProof(_proof, _voteId);\n        emit VoteFeedback(unicode\"\", isValid ? unicode\"\" : unicode\"\");\n        return isValid;\n    }\n\n    function getCurrentPhase(uint _voteId) public view returns (VotePhase) {\n        VoteData storage voteData = votes[_voteId];\n        require(voteData.id > 0, unicode\"ID\");\n        \n        uint currentTime = block.timestamp;\n        uint registrationStartTime = voteData.startTime - 2 days;\n\n        // \n        if (currentTime > voteData.endTime) {\n            return VotePhase.Ended;\n        }\n        // \n        else if (currentTime >= voteData.startTime) {\n            return VotePhase.Voting;\n        }\n        // \n        else if (currentTime >= registrationStartTime) {\n            return VotePhase.Registration;\n        }\n        // \n        else {\n            return VotePhase.Ended;\n        }\n    }\n\n    function getVote(uint _voteId) public view returns (\n        uint id,\n        string memory title,\n        string memory description,\n        uint startTime,\n        uint endTime,\n        uint voterCount,\n        uint numVotes  // shadowing\n    ) {\n        require(_voteId > 0 && _voteId <= totalVoteProjects, unicode\"ID\");\n        VoteData storage voteData = votes[_voteId];\n        return (\n            voteData.id,\n            voteData.title,\n            voteData.description,\n            voteData.startTime,\n            voteData.endTime,\n            voteData.voterCount,\n            voteData.totalVotes\n        );\n    }\n\n    function getOption(uint _voteId, uint _optionId) public view returns (\n        string memory optionText,\n        uint voteCount\n    ) {\n        VoteData storage voteData = votes[_voteId];\n        require(_optionId > 0 && _optionId <= voteData.optionCount, unicode\"ID\");\n        \n        Option storage option = voteData.options[_optionId];\n        \n        // \n        if (getCurrentPhase(_voteId) != VotePhase.Ended && !voteData.hasVoted[msg.sender]) {\n            return (option.text, 0);\n        }\n        \n        return (option.text, option.votesReceived);\n    }\n\n    function getOptionCount(uint _voteId) public view returns (uint) {\n        return votes[_voteId].optionCount;\n    }\n\n    function hasVoted(uint _voteId, address _voter) public view returns (bool) {\n        return votes[_voteId].hasVoted[_voter];\n    }\n\n    function isSignedUp(uint _voteId, address _voter) public view returns (bool) {\n        return signedUpVoters[_voteId][_voter];\n    }\n}\n",
  "sourcePath": "D:\\0_Data\\\\VoteX\\contracts\\Voting.sol",
  "compiler": {
    "name": "solc",
    "version": "0.8.19+commit.7dd6d404.Emscripten.clang"
  },
  "schemaVersion": "3.4.16",
  "updatedAt": "2025-05-25T16:32:25.008Z",
  "networkType": "ethereum",
  "devdoc": {
    "kind": "dev",
    "methods": {},
    "version": 1
  },
  "userdoc": {
    "kind": "user",
    "methods": {},
    "version": 1
  }
}