{
  "contractName": "ZKProofVerifier",
  "abi": [
    {
      "inputs": [],
      "stateMutability": "nonpayable",
      "type": "constructor"
    },
    {
      "anonymous": false,
      "inputs": [
        {
          "indexed": false,
          "internalType": "string",
          "name": "message",
          "type": "string"
        },
        {
          "indexed": false,
          "internalType": "uint256",
          "name": "value",
          "type": "uint256"
        }
      ],
      "name": "DebugUint",
      "type": "event"
    },
    {
      "anonymous": false,
      "inputs": [
        {
          "indexed": false,
          "internalType": "string",
          "name": "message",
          "type": "string"
        },
        {
          "indexed": false,
          "internalType": "uint256",
          "name": "x",
          "type": "uint256"
        },
        {
          "indexed": false,
          "internalType": "uint256",
          "name": "y",
          "type": "uint256"
        }
      ],
      "name": "DebugVerifyPoint",
      "type": "event"
    },
    {
      "anonymous": false,
      "inputs": [
        {
          "indexed": false,
          "internalType": "string",
          "name": "functionName",
          "type": "string"
        },
        {
          "indexed": false,
          "internalType": "uint256",
          "name": "gasUsed",
          "type": "uint256"
        }
      ],
      "name": "GasUsage",
      "type": "event"
    },
    {
      "inputs": [],
      "name": "H",
      "outputs": [
        {
          "internalType": "uint256",
          "name": "x",
          "type": "uint256"
        },
        {
          "internalType": "uint256",
          "name": "y",
          "type": "uint256"
        }
      ],
      "stateMutability": "view",
      "type": "function",
      "constant": true
    },
    {
      "inputs": [
        {
          "internalType": "bytes",
          "name": "proof",
          "type": "bytes"
        },
        {
          "internalType": "uint256",
          "name": "voteId",
          "type": "uint256"
        }
      ],
      "name": "verifyVoteProof",
      "outputs": [
        {
          "internalType": "bool",
          "name": "",
          "type": "bool"
        }
      ],
      "stateMutability": "nonpayable",
      "type": "function"
    }
  ],
  "bytecode": "0x6080346100fe57604081016001600160401b038111828210176100e8577f52f5a0cfcac502a039744c9f97fb2f72cc089ebbe19693c2e4bc6c45378f9e159160a09160405260207f26d54f2fc05f6c2317596cefcb2ab3d23119b28b91cfb8e29cf991ed30dedc91918281527f20fb6823bbd8388fec2202f1062cac2f39849868bc381634587e4d5e1c80cb85918291015281600055806001556040519160608352601660608401527fe8be85e58aa9e782b948e5b7b2e5889de5a78be58c9600000000000000000000608084015260208301526040820152a1604051610e9b90816101048239f35b634e487b7160e01b600052604160045260246000fd5b600080fdfe6080604052600436101561001257600080fd5b6000803560e01c806370a5d861146100a85763b124b67b1461003357600080fd5b346100a55760403660031901126100a5576004359067ffffffffffffffff908183116100a557366023840112156100a55782600401359182116100a55736602483850101116100a5576100a161008f848460248035920161011b565b60405190151581529081906020820190565b0390f35b80fd5b50346100a557806003193601126100a557546001549060805260a05260406080f35b907f30644e72e131a029b85045b68181585d97816a916871ca8d3c208c16d87cfd479182039182116100f857565b634e487b7160e01b600052601160045260246000fd5b919082039182116100f857565b90915a9260c08114806102ab575b156102675761013e610156916101c79461052f565b919293909461014f8387868861066f565b848461083e565b937f2c78221d853bf45521bf53ad2802eb4470185a3cad34373f42e4639a8fdeb197604051806101bf8882919060408352600b60408401527fe68c91e68898e580bc653a0000000000000000000000000000000000000000006060840152602060808401930152565b0390a161031d565b8151815114929183610250575b505061024a6102057f1708c513ff8f9704dabf1b5d59c5c6a9e2aed31f0a246e97a7fd58c6f00eb1c9925a9061010e565b60405191829182919060408352600f60408401527f766572696679566f746550726f6f6600000000000000000000000000000000006060840152602060808401930152565b0390a190565b60209081015191015114915061024a6102056101d4565b606460405162461bcd60e51b815260206004820152601560248201527fe697a0e69588e79a84e8be93e585a5e58f82e695b000000000000000000000006044820152fd5b50811515610129565b634e487b7160e01b600052604160045260246000fd5b604051906040820182811067ffffffffffffffff8211176102ea57604052565b6102b4565b6102f76102ca565b906000825260006020830152565b61030d6102ca565b9060005482526001546020830152565b61049a906104377f1708c513ff8f9704dabf1b5d59c5c6a9e2aed31f0a246e97a7fd58c6f00eb1c9946103ad6103b36104df969a98999a600060206103606102ca565b8281520152600060206103716102ca565b82815201526103ad61039f5a976103866102ef565b5061038f6102ca565b6001815260026020820152610d31565b916103a8610305565b610d31565b9061099b565b998a519960208c01519a6040518061042f7f52f5a0cfcac502a039744c9f97fb2f72cc089ebbe19693c2e4bc6c45378f9e159e8f94836040909392919360608152600c60608201527fe7ad89e5bc8fe5b7a6e8beb90000000000000000000000000000000000000000608082015260a081019460208201520152565b0390a1610d31565b958651602088015190610490604051928392836040909392919360608152600c60608201527fe7ad89e5bc8fe58fb3e8beb90000000000000000000000000000000000000000608082015260a081019460208201520152565b0390a15a9061010e565b60405191829182919060408352601b60408401527f636f6d70757465566572696669636174696f6e4571756174696f6e00000000006060840152602060808401930152565b0390a1565b156104eb57565b606460405162461bcd60e51b815260206004820152601560248201527fe697a0e69588e79a84e8af81e6988ee995bfe5baa600000000000000000000006044820152fd5b91909161053a6102ef565b506105436102ef565b5061055160c05a94146104e4565b60405192604084019260808501604052823560208401357f30644e72e131a029b85045b68181585d97816a916871ca8d3c208c16d87cfd479182821015838210151761066a5787526020870152604084013560608501359180831015908210151761066a578552606086015260a06080840135930135917f30644e72e131a029b85045b68181585d2833e84879b9709143e1f593f000000180841015908510151761066a576104df6106257f1708c513ff8f9704dabf1b5d59c5c6a9e2aed31f0a246e97a7fd58c6f00eb1c9925a9061010e565b60405191829182919060408352601660408401527f6578747261637450726f6f66436f6d706f6e656e7473000000000000000000006060840152602060808401930152565b600080fd5b91929092602083519301517f30644e72e131a029b85045b68181585d97816a916871ca8d3c208c16d87cfd478060038187818180090908818380090361066a5785516020870191806003818551948181800909089180090361066a576107f6956104df95604051806107457f52f5a0cfcac502a039744c9f97fb2f72cc089ebbe19693c2e4bc6c45378f9e15968794836040909392919360608152600960608201527fe689bfe8afbae782b90000000000000000000000000000000000000000000000608082015260a081019460208201520152565b0390a15190516040805160608082526004908201527f52e782b9000000000000000000000000000000000000000000000000000000006080820152602081019390935282015260a090a1604051807f2c78221d853bf45521bf53ad2802eb4470185a3cad34373f42e4639a8fdeb19795869382919060408352600460408401527f73e580bc000000000000000000000000000000000000000000000000000000006060840152602060808401930152565b0390a160405191829182919060408352600560408401527f7327e580bc0000000000000000000000000000000000000000000000000000006060840152602060808401930152565b60806108b760a07f1708c513ff8f9704dabf1b5d59c5c6a9e2aed31f0a246e97a7fd58c6f00eb1c9937f30644e72e131a029b85045b68181585d2833e84879b9709143e1f593f00000019660205a9781604051948051865201518285015280516040850152015160608301528482015220935a9061010e565b6040519060408252601060408301527f636f6d707574654368616c6c656e67650000000000000000000000000000000060608301526020820152a10690565b604051906080820182811067ffffffffffffffff8211176102ea576040526080368337565b6109236102ca565b906040368337565b604051906060820182811067ffffffffffffffff8211176102ea576040526060368337565b1561095757565b606460405162461bcd60e51b815260206004820152601e60248201527fe6a4ade59c86e69bb2e7babfe58aa0e6b395e8bf90e7ae97e5a4b1e8b4a500006044820152fd5b6109a36102ef565b508051801580610a9a575b610a9557825190811580610a89575b610a82571480610a71575b610a6457805182511480610a52575b610a3a576040610a20916020608094816109ef6108f6565b938051855201518284015280518484015201516060820152610a0f61091b565b93849160066107cf195a01fa610950565b60208151910151610a2f6102ca565b918252602082015290565b5050610a446102ca565b600081526000602082015290565b506020810151602083015114156109d7565b610a6e9150610aa6565b90565b5060208101516020830151146109c8565b5050905090565b506020840151156109bd565b505090565b506020820151156109ae565b610aae6102ef565b9080511580610b57575b8015610b4b575b610a3a57805160208201610b44610b0282517f30644e72e131a029b85045b68181585d97816a916871ca8d3c208c16d87cfd478095818080958186819708610b63565b9281818009096003090995610b328280898009808b52610b2582855180086100ca565b900891828a5251916100ca565b900860208701950991828552516100ca565b9008905290565b50602081015115610abf565b50602081015115610ab8565b8015610c57577f30644e72e131a029b85045b68181585d97816a916871ca8d3c208c16d87cfd47809106908115610bee576001917f30644e72e131a029b85045b68181585d97816a916871ca8d3c208c16d87cfd45918391835b610bc8575050505090565b8280851614610be0575b8082910992821c9283610bbd565b938185819209949050610bd2565b608460405162461bcd60e51b8152602060048201526024808201527fe58f96e6a8a1e5908ee5be97e588b0e697a0e69588e8be93e585a5efbc9ae99b60448201527fb6e580bc000000000000000000000000000000000000000000000000000000006064820152fd5b606460405162461bcd60e51b815260206004820152601560248201527fe697a0e69588e8be93e585a5efbc9ae99bb6e580bc00000000000000000000006044820152fd5b15610ca257565b606460405162461bcd60e51b815260206004820152601260248201527fe782b9e4b88de59ca8e69bb2e7babfe4b88a00000000000000000000000000006044820152fd5b15610ced57565b606460405162461bcd60e51b815260206004820152601860248201527fe7bb93e69e9ce782b9e4b88de59ca8e69bb2e7babfe4b88a00000000000000006044820152fd5b90610d3a6102ef565b5080158015610dfa575b610a3a5760018114610df6577f30644e72e131a029b85045b68181585d2833e84879b9709143e1f593f00000019006908115610a3a5760018214610df1578060606040925193610da2610d9d6020850196875190610e10565b610c9b565b610daa61092b565b90610db361091b565b9586945183525160208301528482015260075afa50610a6e610dec60208351930151610ddd6102ca565b93808552816020860152610e10565b610ce6565b905090565b5090565b508151158015610d445750602082015115610d44565b7f30644e72e131a029b85045b68181585d97816a916871ca8d3c208c16d87cfd4790818110801590610e5b575b610e535760038282818181950909089180091490565b505050600090565b5081831015610e3d56fea26469706673582212200e80d39f7cf6134ddb14a83d8b43703f146a04ba2d7cadfb3b50bea8da95492864736f6c63430008130033",
  "immutableReferences": {},
  "source": "// SPDX-License-Identifier: MIT\r\npragma solidity ^0.8.0;\r\n\r\n// 零知识证明验证器，实现结合Pederson承诺的标准非交互式双基点Schnorr协议\r\ncontract ZKProofVerifier {\r\n    struct G1Point {\r\n        uint256 x;\r\n        uint256 y;\r\n    }\r\n    \r\n    // bn128曲线常量\r\n    uint256 constant private P = 0x30644e72e131a029b85045b68181585d97816a916871ca8d3c208c16d87cfd47;\r\n    uint256 constant private N = 0x30644e72e131a029b85045b68181585d2833e84879b9709143e1f593f0000001;\r\n    uint256 constant private B = 3; // b = 3 for bn128\r\n    \r\n    // 基点G的坐标常量（bn128的生成元）\r\n    uint256 constant private G1_X = 1;\r\n    uint256 constant private G1_Y = 2;\r\n    \r\n    // 系统使用的辅助点H\r\n    G1Point public H;\r\n    \r\n    // 调试事件\r\n    event DebugVerifyPoint(string message, uint256 x, uint256 y);\r\n    event DebugUint(string message, uint256 value);\r\n    event GasUsage(string functionName, uint256 gasUsed);\r\n    \r\n    // 获取基点G\r\n    function getG1() internal pure returns (G1Point memory) {\r\n        return G1Point(G1_X, G1_Y);\r\n    }\r\n    \r\n    // 构造函数，初始化辅助点H\r\n    constructor() {\r\n        // 初始化一个已知在曲线上的有效辅助点H (bn128标准辅助点)\r\n        uint256 hx = 0x26d54f2fc05f6c2317596cefcb2ab3d23119b28b91cfb8e29cf991ed30dedc91;\r\n        uint256 hy = 0x20fb6823bbd8388fec2202f1062cac2f39849868bc381634587e4d5e1c80cb85;\r\n        \r\n        // 验证坐标范围\r\n        require(hx < P && hy < P, unicode\"辅助点坐标超出范围\");\r\n        \r\n        // 验证点在曲线上\r\n        require(isOnCurve(hx, hy), unicode\"辅助点不在曲线上\");\r\n        \r\n        // 初始化H点\r\n        H = G1Point(hx, hy);\r\n        \r\n        // 确保H不是无穷远点\r\n        require(H.x != 0 || H.y != 0, unicode\"辅助点初始化失败: 得到无穷远点\");\r\n        \r\n        // 输出辅助点信息用于调试\r\n        emit DebugVerifyPoint(unicode\"辅助点H已初始化\", H.x, H.y);\r\n    }\r\n    \r\n    // 优化的零知识证明验证函数 \r\n    function verifyVoteProof(\r\n        bytes calldata proof,\r\n        uint256 voteId\r\n    ) public returns (bool) {\r\n        uint256 startGas = gasleft();\r\n        \r\n        // 验证Schnorr证明的长度必须是192字节\r\n        require(proof.length == 192 && voteId != 0, unicode\"无效的输入参数\");\r\n        \r\n        // 直接提取证明组件\r\n        (G1Point memory commPoint, G1Point memory R, uint256 s, uint256 sPrime) = \r\n            extractProofComponents(proof);\r\n            \r\n        // 验证范围并记录日志\r\n        validateProofComponents(commPoint, R, s, sPrime);\r\n        \r\n        // 优化的挑战值计算，使用voteId\r\n        uint256 e = computeChallenge(R, commPoint, voteId);\r\n        emit DebugUint(unicode\"挑战值e:\", e);\r\n\r\n        // 链式计算等式两边: sG + s'H ?= R + eC\r\n        (G1Point memory left, G1Point memory right) = \r\n            computeVerificationEquation(s, sPrime, R, commPoint, e);\r\n            \r\n        bool valid = (left.x == right.x && left.y == right.y);\r\n        \r\n        uint256 gasUsed = startGas - gasleft();\r\n        emit GasUsage(\"verifyVoteProof\", gasUsed);\r\n        \r\n        return valid;\r\n    }\r\n\r\n    // 计算验证等式两边\r\n    function computeVerificationEquation(\r\n        uint256 s,\r\n        uint256 sPrime,\r\n        G1Point memory R,\r\n        G1Point memory commPoint,\r\n        uint256 e\r\n    ) internal returns (G1Point memory left, G1Point memory right) {\r\n        uint256 startGas = gasleft();\r\n        \r\n        // 左边：sG + s'H\r\n        left = ecAdd(\r\n            ecMul(getG1(), s),\r\n            ecMul(H, sPrime)\r\n        );\r\n        emit DebugVerifyPoint(unicode\"等式左边\", left.x, left.y);\r\n\r\n        // 右边：R + eC\r\n        right = ecAdd(\r\n            R,\r\n            ecMul(commPoint, e)\r\n        );\r\n        emit DebugVerifyPoint(unicode\"等式右边\", right.x, right.y);\r\n        \r\n        uint256 gasUsed = startGas - gasleft();\r\n        emit GasUsage(\"computeVerificationEquation\", gasUsed);\r\n    }\r\n    \r\n    // 从证明数据中提取组件，优化内存使用\r\n    function extractProofComponents(bytes calldata proof) internal returns (\r\n        G1Point memory commPoint,\r\n        G1Point memory R,\r\n        uint256 s,\r\n        uint256 sPrime\r\n    ) {\r\n        uint256 startGas = gasleft();\r\n        \r\n        require(proof.length == 192, unicode\"无效的证明长度\");\r\n\r\n        assembly {\r\n            let ptr := mload(0x40)  // 获取空闲内存指针\r\n            \r\n            // 为两个点和标量值分配内存\r\n            commPoint := ptr\r\n            R := add(ptr, 64)\r\n            \r\n            // 扩展内存\r\n            mstore(0x40, add(ptr, 128))\r\n            \r\n            // 提取承诺点坐标\r\n            let x := calldataload(proof.offset)\r\n            let y := calldataload(add(proof.offset, 32))\r\n            \r\n            // 验证点坐标范围\r\n            if or(iszero(lt(x, P)), iszero(lt(y, P))) {\r\n                revert(0, 0)\r\n            }\r\n            \r\n            // 存储承诺点坐标\r\n            mstore(commPoint, x)\r\n            mstore(add(commPoint, 32), y)\r\n            \r\n            // 提取R点坐标\r\n            x := calldataload(add(proof.offset, 64))\r\n            y := calldataload(add(proof.offset, 96))\r\n            \r\n            // 验证点坐标范围\r\n            if or(iszero(lt(x, P)), iszero(lt(y, P))) {\r\n                revert(0, 0)\r\n            }\r\n            \r\n            // 存储R点坐标\r\n            mstore(R, x)\r\n            mstore(add(R, 32), y)\r\n            \r\n            // 提取标量值\r\n            s := calldataload(add(proof.offset, 128))\r\n            sPrime := calldataload(add(proof.offset, 160))\r\n            \r\n            // 验证标量值范围\r\n            if or(iszero(lt(s, N)), iszero(lt(sPrime, N))) {\r\n                revert(0, 0)\r\n            }\r\n        }\r\n        \r\n        uint256 gasUsed = startGas - gasleft();\r\n        emit GasUsage(\"extractProofComponents\", gasUsed);\r\n    }\r\n    \r\n    // 验证证明组件的有效性\r\n    function validateProofComponents(\r\n        G1Point memory commPoint,\r\n        G1Point memory R,\r\n        uint256 s,\r\n        uint256 sPrime\r\n    ) internal {\r\n        // 优化的曲线点验证\r\n        assembly {\r\n            // 验证第一个点\r\n            let xx := mulmod(mload(commPoint), mload(commPoint), P)\r\n            let xxx := mulmod(xx, mload(commPoint), P)\r\n            let yy := mulmod(mload(add(commPoint, 32)), mload(add(commPoint, 32)), P)\r\n            if iszero(eq(yy, addmod(xxx, B, P))) {\r\n                revert(0, 0)\r\n            }\r\n            \r\n            // 验证第二个点\r\n            xx := mulmod(mload(R), mload(R), P)\r\n            xxx := mulmod(xx, mload(R), P)\r\n            yy := mulmod(mload(add(R, 32)), mload(add(R, 32)), P)\r\n            if iszero(eq(yy, addmod(xxx, B, P))) {\r\n                revert(0, 0)\r\n            }\r\n        }\r\n        \r\n        // 输出调试信息\r\n        emit DebugVerifyPoint(unicode\"承诺点\", commPoint.x, commPoint.y);\r\n        emit DebugVerifyPoint(unicode\"R点\", R.x, R.y);\r\n        emit DebugUint(unicode\"s值\", s);\r\n        emit DebugUint(unicode\"s'值\", sPrime);\r\n    }\r\n    \r\n    // 优化的挑战值计算\r\n    function computeChallenge(\r\n        G1Point memory R,\r\n        G1Point memory commPoint,\r\n        uint256 voteId  // 改为voteId\r\n    ) internal returns (uint256) {\r\n        uint256 startGas = gasleft();\r\n        \r\n        bytes32 preHash;\r\n        assembly {\r\n            let ptr := mload(0x40)      // 获取空闲内存指针\r\n            \r\n            // 填充数据到内存\r\n            mstore(ptr, mload(R))        // R.x\r\n            mstore(add(ptr, 32), mload(add(R, 32)))  // R.y\r\n            mstore(add(ptr, 64), mload(commPoint))   // commPoint.x\r\n            mstore(add(ptr, 96), mload(add(commPoint, 32)))  // commPoint.y\r\n            mstore(add(ptr, 128), voteId)  // 使用voteId替代optionId\r\n            \r\n            // 计算哈希\r\n            preHash := keccak256(ptr, 160)  // 5 * 32 = 160 字节\r\n        }\r\n        \r\n        uint256 gasUsed = startGas - gasleft();\r\n        emit GasUsage(\"computeChallenge\", gasUsed);\r\n        \r\n        return uint256(preHash) % N;\r\n    }\r\n\r\n    \r\n    // 优化的曲线点验证函数 (使用bn128的曲线方程 y² = x³ + 3)\r\n    function isOnCurve(uint256 x, uint256 y) internal pure returns (bool) {\r\n        if (x >= P || y >= P) return false;\r\n        \r\n        uint256 yy = mulmod(y, y, P);\r\n        uint256 xx = mulmod(x, x, P);\r\n        uint256 xxx = mulmod(xx, x, P);\r\n        \r\n        return yy == addmod(xxx, B, P);\r\n    }  \r\n\r\n    // 调用椭圆曲线加法预编译合约 (bn128的add在地址0x6)\r\n    function ecAdd(G1Point memory p1, G1Point memory p2) internal view returns (G1Point memory r) {\r\n        if (p1.x == 0 && p1.y == 0) return p2;\r\n        if (p2.x == 0 && p2.y == 0) return p1;\r\n        if (p1.x == p2.x && p1.y == p2.y) return ecDouble(p1);\r\n        if (p1.x == p2.x && p1.y != p2.y) return G1Point(0, 0);\r\n        \r\n        uint256[4] memory input;\r\n        input[0] = p1.x;\r\n        input[1] = p1.y;\r\n        input[2] = p2.x;\r\n        input[3] = p2.y;\r\n        \r\n        uint256[2] memory result;\r\n        bool success;\r\n        \r\n        assembly {\r\n            success := staticcall(\r\n                sub(gas(), 2000),\r\n                6,  // bn128 add is at 0x6\r\n                input,\r\n                128,\r\n                result,\r\n                64\r\n            )\r\n        }\r\n        \r\n        require(success, unicode\"椭圆曲线加法运算失败\");\r\n        return G1Point(result[0], result[1]);\r\n    }\r\n    \r\n    // 椭圆曲线点加倍\r\n    function ecDouble(G1Point memory p) internal pure returns (G1Point memory r) {\r\n        if (p.x == 0 && p.y == 0 || p.y == 0) return G1Point(0, 0);\r\n        \r\n        uint256 s;\r\n        uint256 xCubed = mulmod(mulmod(p.x, p.x, P), p.x, P);\r\n        uint256 doubleY = addmod(p.y, p.y, P);\r\n        s = mulmod(3, xCubed, P);\r\n        uint256 doubleYInv = modInv(doubleY, P);\r\n        s = mulmod(s, doubleYInv, P);\r\n        \r\n        r.x = mulmod(s, s, P);\r\n        uint256 doublePx = addmod(p.x, p.x, P);\r\n        r.x = addmod(r.x, P - doublePx, P);\r\n        \r\n        r.y = addmod(p.x, P - r.x, P);\r\n        r.y = mulmod(s, r.y, P);\r\n        r.y = addmod(r.y, P - p.y, P);\r\n        \r\n        return r;\r\n    }\r\n    \r\n    // 模逆元计算\r\n    function modInv(uint256 a, uint256 m) private pure returns (uint256) {\r\n        require(a != 0, unicode\"无效输入：零值\");\r\n        \r\n        a = a % m;\r\n        require(a != 0, unicode\"取模后得到无效输入：零值\");\r\n        \r\n        uint256 power = m - 2;\r\n        uint256 result = 1;\r\n        uint256 base = a;\r\n        \r\n        while (power > 0) {\r\n            if (power & 1 == 1) {\r\n                result = mulmod(result, base, m);\r\n            }\r\n            base = mulmod(base, base, m);\r\n            power >>= 1;\r\n        }\r\n        \r\n        return result;\r\n    }\r\n    \r\n    // 优化的椭圆曲线乘法 (bn128的mul在地址0x7)\r\n    function ecMul(G1Point memory p, uint256 scalar) internal view returns (G1Point memory r) {\r\n        if (scalar == 0 || p.x == 0 && p.y == 0) return G1Point(0, 0);\r\n        if (scalar == 1) return p;\r\n        \r\n        uint256 scalarModN = scalar % N;\r\n        if (scalarModN == 0) return G1Point(0, 0);\r\n        if (scalarModN == 1) return p;\r\n        \r\n        require(isOnCurve(p.x, p.y), unicode\"点不在曲线上\");\r\n        \r\n        uint256[3] memory input;\r\n        uint256[2] memory result;\r\n        bool success;\r\n\r\n        input[0] = p.x;\r\n        input[1] = p.y;\r\n        input[2] = scalarModN;\r\n        \r\n        assembly {\r\n            success := staticcall(\r\n                gas(),\r\n                7,  // bn128 mul is at 0x7\r\n                input,\r\n                96,\r\n                result,\r\n                64\r\n            )\r\n        }\r\n        r = G1Point(result[0], result[1]);\r\n        \r\n        require(isOnCurve(r.x, r.y), unicode\"结果点不在曲线上\");\r\n        return r;\r\n    }\r\n\r\n}\r\n",
  "sourcePath": "D:\\0_Data\\桌面\\VoteX\\contracts\\ZKProofVerifier.sol",
  "compiler": {
    "name": "solc",
    "version": "0.8.19+commit.7dd6d404.Emscripten.clang"
  },
  "schemaVersion": "3.4.16",
  "updatedAt": "2025-05-10T14:51:41.933Z",
  "networkType": "ethereum",
  "devdoc": {
    "kind": "dev",
    "methods": {},
    "version": 1
  },
  "userdoc": {
    "kind": "user",
    "methods": {},
    "version": 1
  }
}